:060000000A128A110C280F
:10000800FE00030EF3000A08F4000A128A11712890
:100018000A128A110F280A128A11F9200A128A1163
:10002800F800F501F601F70183010A128A11B328D5
:1000380001308316031788008901013083160313E2
:100048008500831203138501831603138701831226
:10005800031387018316031388018312031388018E
:10006800831603138901831203138901831603136B
:100078000F088F3940388F000F148B170B178B150B
:100088001614961416150B10831203130C138316EB
:1000980003130C17061486140615811315149514EA
:1000A8001515831203131F083F3940389F00831624
:1000B80003131F129F12C330831203139F05831665
:1000C80003139F13831203131F14023083120313A5
:1000D800A000A00B6D2800000800831203130C1F5A
:1000E8007628772885281F0CF200720C0F39003A01
:1000F800031D7F28802884281E08F70077088700BA
:100108000C130B1C88288928AC2886188C288D2865
:100118009128F501F6010910AB28061894289528AE
:100128009C280130F5000030F60009146300AB2864
:1001380006199F28A028AB28F501F60109107708B1
:10014800F00078080A128A11D9200A128A110B10B5
:1001580074088A00730E8300FE0E7E0E09000A12D0
:100168008A111C200A128A1175087604031DBD28FD
:10017800BE28CC28831203139F18C328C428CC2870
:100188009F14023083120313A100A10BC928000099
:1001980078080A128A11EE200A128A1183120313B0
:1001A8008800B8280A128A110C28F10071088312F5
:1001B80003178D0070088C00831603178C130C1519
:1001C8008B1355308D00AA308D008C140C110B1038
:1001D8008B170800831203170D08831603178C1357
:0C01E8000C14831203170C0808000134EB
:08400000FF3FFF3FFF3FFF3FC0
:04400E00D520FF3F7B
:00000001FF
